:100000000C942A000C9447000C9447000C94470071
:100010000C9447000C9447000C9447000C94470044
:100020000C9447000C9447000C9447000C94470034
:100030000C9447000C9447000C9447000C94470024
:100040000C9447000C9447000C9447000C94470014
:100050000C94470011241FBECFE5D8E0DEBFCDBF12
:1000600010E0A0E6B0E0EEE1F8E202C005900D92EB
:10007000A83BB107D9F710E0A8EBB0E001C01D9292
:10008000AA3BB107E1F70E9453130C940D140C9492
:100090000000EF92FF920F931F937B018C0120E0F1
:1000A00030E040E05FE40E94490388238CF0C801FF
:1000B000B70120E030E040E05FE40E94C1010E940F
:1000C000A9039B01AC01205030404040504806C07D
:1000D000C801B7010E94A9039B01AC01B901CA0183
:1000E0001F910F91FF90EF900895A0E0B0E0EBE733
:1000F000F0E00C94D613DC012B01FA019C919230B4
:1001000008F439C1EB018881823008F433C194309E
:1001100069F4843009F02FC111969C91119789815F
:10012000981709F428C1A5E9B0E025C1843009F485
:1001300021C18230A9F4923009F01DC19A01AD01AC
:1001400088E0EA010990AE01E90109929E0181501F
:10015000C1F7E201898111969C918923818308C1AD
:10016000923009F407C112962D903C901397EB0141
:100170008A819B811496AD90BD90CD90DC901797AD
:10018000EC80FD800E811F819101281B390BB90184
:1001900037FF04C066277727621B730B6032710537
:1001A0000CF061C0121613066CF537014801062EDB
:1001B00004C096948794779467940A94D2F721E0C8
:1001C00030E040E050E004C0220F331F441F551FB1
:1001D0006A95D2F721503040404050402E213F21B7
:1001E00040235123211531054105510521F021E01E
:1001F00030E040E050E079018A01E628F72808293C
:1002000019293CC0232BD1F1260E371E350146019A
:10021000062E04C096948794779467940A94D2F734
:1002200021E030E040E050E004C0220F331F441FC3
:10023000551F6A95D2F721503040404050402A2146
:100240003B214C215D21211531054105510521F04E
:1002500021E030E040E050E059016A01A628B728CB
:10026000C828D9280BC0821593052CF01C01AA249C
:10027000BB24650103C0EE24FF24870111969C91E5
:10028000D20111968C91981709F445C0992339F041
:10029000A80197012A193B094C095D0906C0A6016E
:1002A00095012E193F09400B510B57FD08C01182D3
:1002B0003382228224833583468357831DC081E0A5
:1002C00081833382228288279927DC01821B930B4A
:1002D000A40BB50B84839583A683B7830DC0220F2F
:1002E000331F441F551F24833583468357838281E0
:1002F000938101979383828324813581468157813D
:10030000DA01C9010197A109B1098F5F9F4FAF4F72
:10031000BF4328F30BC0918333822282EA0CFB1C7B
:100320000C1D1D1DE482F5820683178383E0808304
:10033000248135814681578157FF1AC0C901AA27F8
:1003400097FDA095BA2F81709070A070B0705695EF
:10035000479537952795822B932BA42BB52B848318
:100360009583A683B7838281938101969383828349
:10037000DF0101C0D201CD01CDB7DEB7E2E10C94BF
:10038000F213A0E2B0E0E7ECF1E00C94E213698331
:100390007A838B839C832D833E834F835887E9E048
:1003A000EE2EF12CEC0EFD1ECE010196B7010E943F
:1003B000D2048E010F5E1F4FCE010596B8010E9438
:1003C000D2048A8991E089278A8BC701B801AE01DE
:1003D000475E5F4F0E9475000E94FD03A096E6E015
:1003E0000C94FE13A0E2B0E0E8EFF1E00C94E2130D
:1003F00069837A838B839C832D833E834F835887C5
:10040000F9E0EF2EF12CEC0EFD1ECE010196B701A6
:100410000E94D2048E010F5E1F4FCE010596B801D7
:100420000E94D204C701B801AE01475E5F4F0E942F
:1004300075000E94FD03A096E6E00C94FE13A0E276
:10044000B0E0E5E2F2E00C94D61369837A838B8303
:100450009C832D833E834F835887CE010196BE0136
:10046000675F7F4F0E94D204CE010596BE016F5E8A
:100470007F4F0E94D2049985923088F0898982301A
:10048000C8F0943019F4823051F404C0843029F457
:10049000923081F485E990E0C6C0923049F420E0C2
:1004A0009A858A89981321E02A87CE010996BBC0D4
:1004B000823049F420E09A858A89981321E02A8BBA
:1004C000CE014196B0C02D843E844F8458886D88FB
:1004D0007E888F88988CEE24FF248701AA24BB2471
:1004E000650140E050E060E070E0E0E0F0E0C10174
:1004F00081709070892BE9F0E60CF71C081D191D1E
:100500009A01AB012A0D3B1D4C1D5D1D80E090E062
:10051000A0E0B0E0E614F7040805190520F481E036
:1005200090E0A0E0B0E0BA01A901480F591F6A1F8E
:100530007B1FAA0CBB1CCC1CDD1C97FE08C081E0F5
:1005400090E0A0E0B0E0A82AB92ACA2ADB2A3196B6
:10055000E032F10549F0660C771C881C991C569412
:10056000479437942794C3CFFA85EA892B893C892D
:100570008B859C85280F391F2E5F3F4F17C0CA01FE
:1005800081709070892B61F016950795F794E79428
:1005900080E090E0A0E0B0E8E82AF92A0A2B1B2BC3
:1005A00076956795579547952F5F3F4F77FDE7CF36
:1005B0000CC0440F551F661F771F17FD4160EE0CDE
:1005C000FF1C001F111F21503040403090E05907A0
:1005D00090E0690790E4790760F32B8F3C8FDB0193
:1005E000CA018F779070A070B07080349105A1051A
:1005F000B10561F447FD0AC0E114F10401051105DC
:1006000029F0405C5F4F6F4F7F4F40781A8EFE1786
:1006100011F081E08A8F4D8F5E8F6F8F78A383E01A
:10062000898FCE0149960E94FD03A096E2E10C94C9
:10063000F213A8E1B0E0EFE1F3E00C94E213698378
:100640007A838B839C832D833E834F83588789E0F5
:10065000E82EF12CEC0EFD1ECE010196B7010E9492
:10066000D2048E010F5E1F4FCE010596B8010E9485
:10067000D2048985823040F08989823028F0C70110
:10068000B8010E944A0501C08FEF6896E6E00C941D
:10069000FE13A8E1B0E0EFE4F3E00C94E213698309
:1006A0007A838B839C832D833E834F83588789E095
:1006B000E82EF12CEC0EFD1ECE010196B7010E9432
:1006C000D2048E010F5E1F4FCE010596B8010E9425
:1006D000D2048985823040F08989823028F0C701B0
:1006E000B8010E944A0501C08FEF6896E6E00C94BD
:1006F000FE13A8E1B0E0EFE7F3E00C94E2136983A6
:100700007A838B839C832D833E834F83588789E034
:10071000E82EF12CEC0EFD1ECE010196B7010E94D1
:10072000D2048E010F5E1F4FCE010596B8010E94C4
:10073000D2048985823040F08989823028F0C7014F
:10074000B8010E944A0501C081E06896E6E00C9479
:10075000FE13ACE0B0E0EFEAF3E00C94E61369833B
:100760007A838B839C83CE010196BE016B5F7F4FA2
:100770000E94D2048D81823061F1823050F1843048
:1007800021F48E81882351F12EC02F81388537FDC9
:1007900020C06E812F3131051CF06623F9F023C093
:1007A0008EE190E0821B930B29853A854B855C8511
:1007B00004C056954795379527958A95D2F76623B5
:1007C000B1F050954095309521953F4F4F4F5F4F79
:1007D0000EC020E030E040E050E009C02FEF3FEFD6
:1007E0004FEF5FE704C020E030E040E050E8B9019F
:1007F000CA012C96E2E00C940214DF92EF92FF9271
:100800000F931F93FC01E480F58006811781D1804E
:100810008081823048F480E090E0A0E1B0E0E82AF6
:10082000F92A0A2B1B2BA5C0843009F49FC0823003
:1008300021F4EE24FF24870105C0E114F104010531
:10084000110519F4E0E0F0E096C0628173819FEF3A
:10085000623879070CF05BC022E83FEF261B370BAC
:100860002A3131052CF020E030E040E050E02AC091
:10087000B801A701022E04C0769567955795479554
:100880000A94D2F781E090E0A0E0B0E004C0880FC5
:10089000991FAA1FBB1F2A95D2F70197A109B10979
:1008A0008E219F21A023B1230097A105B10521F03E
:1008B00081E090E0A0E0B0E09A01AB01282B392B59
:1008C0004A2B5B2BDA01C9018F779070A070B07052
:1008D00080349105A105B10539F427FF09C0205CDA
:1008E0003F4F4F4F5F4F04C0215C3F4F4F4F5F4F13
:1008F000E0E0F0E02030A0E03A07A0E04A07A0E402
:100900005A0710F0E1E0F0E079018A0127C0603871
:10091000710564F5FB01E158FF4FD801C7018F77DE
:100920009070A070B07080349105A105B10539F4C4
:10093000E7FE0DC080E490E0A0E0B0E004C08FE3EB
:1009400090E0A0E0B0E0E80EF91E0A1F1B1F17FFA1
:1009500005C016950795F794E794319687E01695AC
:100960000795F794E7948A95D1F705C0EE24FF2404
:100970008701EFEFF0E06E2F679566276795902F60
:100980009F77D794DD24D7948E2F8695492F462BB9
:10099000582F5D29B701CA011F910F91FF90EF9069
:1009A000DF900895FC01DB01408151812281622F9B
:1009B0006F7770E0221F2227221F9381892F880FD3
:1009C000822B282F30E0991F9927991F11969C930D
:1009D000119721153105A9F54115510561057105DD
:1009E00011F482E037C082E89FEF13969C938E93B8
:1009F00012979A01AB0167E0220F331F441F551F66
:100A00006A95D1F783E08C930DC0220F331F441FEA
:100A1000551F12968D919C911397019713969C9355
:100A20008E931297203080E0380780E0480780E4FA
:100A3000580758F314962D933D934D935C93179755
:100A400008952F3F310579F4411551056105710570
:100A500019F484E08C93089564FF03C081E08C93C3
:100A600012C01C9210C02F57304013963C932E9307
:100A7000129783E08C9387E0440F551F661F771F02
:100A80008A95D1F7706414964D935D936D937C9322
:100A9000179708951F93DC01FB019C91923008F495
:100AA00047C08081823008F443C0943051F41196DD
:100AB0001C91843099F58181682F70E0611B710968
:100AC0003FC0843021F0923031F48230B9F181811D
:100AD000882389F12DC011961C9111978230F1F075
:100AE00081811817D9F412962D913C911397828128
:100AF00093818217930794F028173907BCF0149656
:100B00008D919D910D90BC91A02D248135814681C0
:100B10005781281739074A075B0718F4112341F05A
:100B20000AC082179307A407B50740F4112319F0F0
:100B300061E070E005C06FEF7FEF02C060E070E041
:100B4000CB011F910895DF93CF93CDB7DEB780918E
:100B50009D0090919E00A0919F00B091A000BC01CB
:100B6000CD010E944D128091A1009091A200A09110
:100B7000A300B091A400BC01CD010E944D12609170
:100B8000A5007091A6008091A7000E94F7126091C5
:100B9000A8007091A9008091AA000E94F7126091AC
:100BA000AB007091AC008091AD000E94F7120E94E2
:100BB000B5070E94E10A80E00E94E105CF91DF9134
:100BC0000895DF93CF9300D00F92CDB7DEB789831E
:100BD0008981282F30E03B832A838A819B81813061
:100BE000910509F463C02A813B81223031052CF440
:100BF0008A819B81009769F0BDC02A813B812230A8
:100C0000310541F18A819B818330910509F47AC0D5
:100C1000B1C00E94E10A80919D0090919E00A09138
:100C20009F00B091A000BC01CD010E949212809162
:100C3000A1009091A200A091A300B091A400BC01DA
:100C4000CD010E9492120E94E10A80E690E00E948B
:100C5000690B90C08091A1009091A200A091A30087
:100C6000B091A400BC01CD010E9492120E94E10A41
:100C70008AE690E00E94690B80919D0090919E0011
:100C8000A0919F00B091A000BC01CD010E94621212
:100C900080919D0090919E00A0919F00B091A00036
:100CA000BC01CD0140E00E94C21264C080919D0051
:100CB00090919E00A0919F00B091A000BC01CD0139
:100CC0000E9492120E94E10A8AE790E00E94690B5A
:100CD0008091A1009091A200A091A300B091A400E6
:100CE000BC01CD010E9462128091A1009091A200EE
:100CF000A091A300B091A400BC01CD0140E00E94EE
:100D0000C21238C00E94E10A89E890E00E94690B93
:100D10008091A1009091A200A091A300B091A400A5
:100D2000BC01CD010E94621280919D0090919E00B5
:100D3000A0919F00B091A000BC01CD010E94621261
:100D40008091A1009091A200A091A300B091A40075
:100D5000BC01CD0140E00E94C21280919D009091A3
:100D60009E00A0919F00B091A000BC01CD0140E089
:100D70000E94C2120F900F900F90CF91DF910895B3
:100D8000DF93CF93CDB7DEB780E00E94E10560919D
:100D9000A8007091A9008091AA000E9415138823D1
:100DA00021F081E08093B9001DC06091A500709191
:100DB000A6008091A7000E941513882321F082E0ED
:100DC0008093B9000FC06091AB007091AC0080912E
:100DD000AD000E941513882329F01092B80083E01B
:100DE0008093B900CF91DF910895DF93CF93CDB772
:100DF000DEB782E00E94E1056091A8007091A90031
:100E00008091AA000E941513882319F01092B9004E
:100E10001EC06091A5007091A6008091A7000E945D
:100E20001513882321F082E08093B90010C06091EF
:100E3000AB007091AC008091AD000E941513882327
:100E400031F082E08093B80083E08093B900CF91C5
:100E5000DF910895DF93CF93CDB7DEB781E00E9495
:100E6000E1056091A8007091A9008091AA000E94FC
:100E70001513882321F081E08093B9001DC0609193
:100E8000A5007091A6008091A7000E9415138823E9
:100E900019F01092B90010C06091AB007091AC00D5
:100EA0008091AD000E941513882331F081E080937A
:100EB000B80083E08093B900CF91DF910895DF936C
:100EC000CF93CDB7DEB783E00E94E1056091A80023
:100ED0007091A9008091AA000E941513882321F027
:100EE00083E08093B9001CC06091A5007091A600BA
:100EF0008091A7000E941513882321F083E080933E
:100F0000B9000EC06091AB007091AC008091AD0053
:100F10000E941513882321F08091B8008093B900B6
:100F2000CF91DF910895DF93CF93CDB7DEB7809156
:100F3000B900882319F40E94C00614C08091B9003A
:100F4000823019F40E94F5060DC08091B9008130FD
:100F500019F40E942A0706C08091B900833011F469
:100F60000E945F07CF91DF910895DF93CF93CDB7B4
:100F7000DEB7E8970FB6F894DEBF0FBECDBF80E0B6
:100F800090E0A8E4B2E48DAB9EABAFABB8AF6DA977
:100F90007EA98FA998AD20E030E04AEF54E40E948A
:100FA0001F02DC01CB0189AB9AABABABBCAB69A92F
:100FB0007AA98BA99CA920E030E040E85FE30E9479
:100FC000790388232CF481E090E098AB8FA73FC091
:100FD00069A97AA98BA99CA920E03FEF4FE757E4C4
:100FE0000E94190318164CF56DA97EA98FA998AD1A
:100FF00020E030E040E251E40E941F02DC01CB011E
:10100000BC01CD010E944900DC01CB0198AB8FA748
:101010000FC088EC90E09EA78DA78DA59EA5019797
:10102000F1F79EA78DA78FA598A9019798AB8FA7D9
:101030008FA598A9009769F714C069A97AA98BA907
:101040009CA90E944900DC01CB0198AB8FA78FA51A
:1010500098A99CA78BA78BA59CA50197F1F79CA7A6
:101060008BA783E06FEF0E940D1182E063E041E007
:101070000E94370C82E064E041E00E94370C82E07D
:1010800065E041E00E94370C80E090E0A0E0B0E431
:101090008FA398A7A9A7BAA76FA178A589A59AA594
:1010A00020E030E04AEF54E40E941F02DC01CB0153
:1010B0008BA39CA3ADA3BEA36BA17CA18DA19EA17C
:1010C00020E030E040E85FE30E94790388232CF4BD
:1010D00081E090E09AA389A33FC06BA17CA18DA180
:1010E0009EA120E03FEF4FE757E40E941903181636
:1010F0004CF56FA178A589A59AA520E030E040E2E3
:1011000051E40E941F02DC01CB01BC01CD010E9411
:101110004900DC01CB019AA389A30FC088EC90E0C1
:1011200098A38F8F8F8D98A10197F1F798A38F8F38
:1011300089A19AA101979AA389A389A19AA100974D
:1011400069F714C06BA17CA18DA19EA10E944900EA
:10115000DC01CB019AA389A389A19AA19E8F8D8FCF
:101160008D8D9E8D0197F1F79E8F8D8F8FE00E9460
:10117000AC0980E090E0A0E0B0E4898F9A8FAB8F5B
:10118000BC8F698D7A8D8B8D9C8D20E030E04AEF8D
:1011900054E40E941F02DC01CB018D8B9E8BAF8B30
:1011A000B88F6D897E898F89988D20E030E040E886
:1011B0005FE30E94790388232CF481E090E09C8B0C
:1011C0008B8B3FC06D897E898F89988D20E03FEFA2
:1011D0004FE757E40E94190318164CF5698D7A8D74
:1011E0008B8D9C8D20E030E040E251E40E941F0294
:1011F000DC01CB01BC01CD010E944900DC01CB0127
:101200009C8B8B8B0FC088EC90E09A8B898B8989A3
:101210009A890197F1F79A8B898B8B899C89019721
:101220009C8B8B8B8B899C89009769F714C06D8987
:101230007E898F89988D0E944900DC01CB019C8BAF
:101240008B8B8B899C89988B8F878F859889019749
:10125000F1F7988B8F8781E00E94AC0980E090E0E5
:10126000A0E2B1E48B879C87AD87BE876B857C85C8
:101270008D859E8520E030E04AEF54E40E941F02F5
:10128000DC01CB018F839887A987BA876F81788526
:1012900089859A8520E030E040E85FE30E94790389
:1012A00088232CF481E090E09E838D833FC06F8182
:1012B000788589859A8520E03FEF4FE757E40E94C3
:1012C000190318164CF56B857C858D859E8520E06D
:1012D00030E040E251E40E941F02DC01CB01BC017E
:1012E000CD010E944900DC01CB019E838D830FC09C
:1012F00088EC90E09C838B838B819C810197F1F734
:101300009C838B838D819E8101979E838D838D81AC
:101310009E81009769F714C06F81788589859A85C9
:101320000E944900DC01CB019E838D838D819E81CB
:101330009A83898389819A810197F1F79A838983B6
:1013400086E00E94AC09E8960FB6F894DEBF0FBEA7
:10135000CDBFCF91DF910895DF93CF930F92CDB79B
:10136000DEB7898383E069810E94581182E063E0DF
:1013700040E00E94460D82E064E040E00E94460D9D
:101380000E94E0090F90CF91DF910895DF93CF93F2
:101390000F92CDB7DEB7898383E069810E9458112F
:1013A00082E063E041E00E94460D82E064E040E0BC
:1013B0000E94460D0E94E0090F90CF91DF910895A1
:1013C000DF93CF93CDB7DEB76C970FB6F894DEBF3F
:1013D0000FBECDBF82E065E041E00E94460D80E097
:1013E00090E0A0E8BFE3898F9A8FAB8FBC8F698DA7
:1013F0007A8D8B8D9C8D20E030E04AEF54E40E9482
:101400001F02DC01CB018D8B9E8BAF8BB88F6D895A
:101410007E898F89988D20E030E040E85FE30E946C
:10142000790388232CF481E090E09C8B8B8B3FC068
:101430006D897E898F89988D20E03FEF4FE757E4D3
:101440000E94190318164CF5698D7A8D8B8D9C8D31
:1014500020E030E040E251E40E941F02DC01CB01B9
:10146000BC01CD010E944900DC01CB019C8B8B8B20
:101470000FC088EC90E09A8B898B89899A890197B3
:10148000F1F79A8B898B8B899C8901979C8B8B8B2D
:101490008B899C89009769F714C06D897E898F8933
:1014A000988D0E944900DC01CB019C8B8B8B8B8932
:1014B0009C89988B8F878F8598890197F1F7988BF6
:1014C0008F8782E065E040E00E94460D80E090E07A
:1014D000A0E8BFE38B879C87AD87BE876B857C8543
:1014E0008D859E8520E030E04AEF54E40E941F0283
:1014F000DC01CB018F839887A987BA876F817885B4
:1015000089859A8520E030E040E85FE30E94790316
:1015100088232CF481E090E09E838D833FC06F810F
:10152000788589859A8520E03FEF4FE757E40E9450
:10153000190318164CF56B857C858D859E8520E0FA
:1015400030E040E251E40E941F02DC01CB01BC010B
:10155000CD010E944900DC01CB019E838D830FC029
:1015600088EC90E09C838B838B819C810197F1F7C1
:101570009C838B838D819E8101979E838D838D813A
:101580009E81009769F714C06F81788589859A8557
:101590000E944900DC01CB019E838D838D819E8159
:1015A0009A83898389819A810197F1F79A83898344
:1015B0006C960FB6F894DEBF0FBECDBFCF91DF9112
:1015C0000895DF93CF93CDB7DEB72E970FB6F8947B
:1015D000DEBF0FBECDBF81E00E94AC0980E090E08D
:1015E000A0E2B1E48B879C87AD87BE876B857C8545
:1015F0008D859E8520E030E04AEF54E40E941F0272
:10160000DC01CB018F839887A987BA876F817885A2
:1016100089859A8520E030E040E85FE30E94790305
:1016200088232CF481E090E09E838D833FC06F81FE
:10163000788589859A8520E03FEF4FE757E40E943F
:10164000190318164CF56B857C858D859E8520E0E9
:1016500030E040E251E40E941F02DC01CB01BC01FA
:10166000CD010E944900DC01CB019E838D830FC018
:1016700088EC90E09C838B838B819C810197F1F7B0
:101680009C838B838D819E8101979E838D838D8129
:101690009E81009769F714C06F81788589859A8546
:1016A0000E944900DC01CB019E838D838D819E8148
:1016B0009A83898389819A810197F1F79A83898333
:1016C0002E960FB6F894DEBF0FBECDBFCF91DF913F
:1016D0000895DF93CF9300D000D0CDB7DEB79C83C1
:1016E0008B831A8219820FC02B813C8189819A8158
:1016F000F901E80FF91F80810E94C60989819A814A
:1017000001969A8389832B813C8189819A81F90191
:10171000E80FF91F8081882339F70F900F900F9001
:101720000F90CF91DF910895DF93CF93CDB7DEB7C0
:1017300061970FB6F894DEBF0FBECDBF888B698B63
:101740008889882331F48889813019F48989803126
:1017500018F080E88F870DC08889882321F4898953
:1017600080588F8706C08889813019F48989805410
:101770008F878F850E94AC0980E090E0A0E8BFE3EE
:101780008B879C87AD87BE876B857C858D859E8585
:1017900020E030E04AEF54E40E941F02DC01CB015C
:1017A0008F839887A987BA876F81788589859A857D
:1017B00020E030E040E85FE30E94790388232CF4C6
:1017C00081E090E09E838D833FC06F81788589851D
:1017D0009A8520E03FEF4FE757E40E94190318165F
:1017E0004CF56B857C858D859E8520E030E040E260
:1017F00051E40E941F02DC01CB01BC01CD010E941B
:101800004900DC01CB019E838D830FC088EC90E002
:101810009C838B838B819C810197F1F79C838B83C5
:101820008D819E8101979E838D838D819E810097FE
:1018300069F714C06F81788589859A850E9449006F
:10184000DC01CB019E838D838D819E819A83898368
:1018500089819A810197F1F79A83898361960FB6FE
:10186000F894DEBF0FBECDBFCF91DF910895DF9317
:10187000CF93CDB7DEB728970FB6F894DEBF0FBE73
:10188000CDBF8A836B834C8381E089838A818430D6
:1018900008F0F1C08B81883008F0EDC08C81813078
:1018A00009F06FC08A81282F30E038872F838F811D
:1018B00098858130910549F12F8138852230310595
:1018C0002CF48F819885009761F0D6C02F813885E0
:1018D0002230310571F18F81988583309105E9F1CE
:1018E000CBC0AAE3B0E0EAE3F0E08081482F8B812F
:1018F000282F30E081E090E0022E02C0880F991F6F
:101900000A94E2F7842B8C93B7C0A7E3B0E0E7E337
:10191000F0E08081482F8B81282F30E081E090E03B
:10192000022E02C0880F991F0A94E2F7842B8C9331
:10193000A3C0A4E3B0E0E4E3F0E08081482F8B8112
:10194000282F30E081E090E0022E02C0880F991F1E
:101950000A94E2F7842B8C938FC0A1E3B0E0E1E31B
:10196000F0E08081482F8B81282F30E081E090E0EB
:10197000022E02C0880F991F0A94E2F7842B8C93E1
:101980007BC08C81882309F074C08A81282F30E0C5
:101990003E832D838D819E818130910559F12D816A
:1019A0003E81223031052CF48D819E81009769F0B3
:1019B00063C02D813E812230310589F18D819E8168
:1019C0008330910509F440C057C0AAE3B0E0EAE3D0
:1019D000F0E08081482F8B81282F30E081E090E07B
:1019E000022E02C0880F991F0A94E2F78095842383
:1019F0008C9342C0A7E3B0E0E7E3F0E08081482F9A
:101A00008B81282F30E081E090E0022E02C0880F09
:101A1000991F0A94E2F7809584238C932DC0A4E348
:101A2000B0E0E4E3F0E08081482F8B81282F30E0A4
:101A300081E090E0022E02C0880F991F0A94E2F71D
:101A4000809584238C9318C0A1E3B0E0E1E3F0E03B
:101A50008081482F8B81282F30E081E090E0022E9A
:101A600002C0880F991F0A94E2F7809584238C9313
:101A700003C0198201C01982898128960FB6F89493
:101A8000DEBF0FBECDBFCF91DF910895DF93CF931F
:101A9000CDB7DEB728970FB6F894DEBF0FBECDBF27
:101AA0008A836B834C8381E089838A81843008F048
:101AB000F1C08B81883008F0EDC08C81813009F055
:101AC0006FC08A81282F30E038872F838F819885D7
:101AD0008130910549F12F813885223031052CF470
:101AE0008F819885009761F0D6C02F81388522308C
:101AF000310571F18F81988583309105E9F1CBC073
:101B0000ABE3B0E0EBE3F0E08081482F8B81282F3E
:101B100030E081E090E0022E02C0880F991F0A9405
:101B2000E2F7842B8C93B7C0A8E3B0E0E8E3F0E0E1
:101B30008081482F8B81282F30E081E090E0022EB9
:101B400002C0880F991F0A94E2F7842B8C93A3C0DC
:101B5000A5E3B0E0E5E3F0E08081482F8B81282FFA
:101B600030E081E090E0022E02C0880F991F0A94B5
:101B7000E2F7842B8C938FC0A2E3B0E0E2E3F0E0C5
:101B80008081482F8B81282F30E081E090E0022E69
:101B900002C0880F991F0A94E2F7842B8C937BC0B4
:101BA0008C81882309F074C08A81282F30E03E831D
:101BB0002D838D819E818130910559F12D813E814A
:101BC000223031052CF48D819E81009769F063C02D
:101BD0002D813E812230310589F18D819E818330B6
:101BE000910509F440C057C0ABE3B0E0EBE3F0E08F
:101BF0008081482F8B81282F30E081E090E0022EF9
:101C000002C0880F991F0A94E2F7809584238C9371
:101C100042C0A8E3B0E0E8E3F0E08081482F8B8188
:101C2000282F30E081E090E0022E02C0880F991F3B
:101C30000A94E2F7809584238C932DC0A5E3B0E04D
:101C4000E5E3F0E08081482F8B81282F30E081E0B0
:101C500090E0022E02C0880F991F0A94E2F7809547
:101C600084238C9318C0A2E3B0E0E2E3F0E080812B
:101C7000482F8B81282F30E081E090E0022E02C0B7
:101C8000880F991F0A94E2F7809584238C9303C0F0
:101C9000198201C01982898128960FB6F894DEBF97
:101CA0000FBECDBFCF91DF910895DF93CF93CDB716
:101CB000DEB727970FB6F894DEBF0FBECDBF8A837D
:101CC0006B835D834C8381E089838A81843008F053
:101CD000A6C08B81883008F0A2C08A81282F30E00E
:101CE0003F832E834E815F8141305105C1F18E814A
:101CF0009F818230910534F42E813F812115310579
:101D000071F08EC04E815F814230510509F447C0A9
:101D10008E819F818330910509F461C081C0E9E320
:101D2000F0E08081482F50E08B81282F30E081E067
:101D300090E002C0880F991F2A95E2F79A012823A4
:101D400039238B81882F90E0A90102C055954795D2
:101D50008A95E2F7CA01EC81FD81808361C0E6E3E8
:101D6000F0E08081482F50E08B81282F30E081E027
:101D700090E002C0880F991F2A95E2F79A01282364
:101D800039238B81882F90E0A90102C05595479592
:101D90008A95E2F7CA01EC81FD81808341C0E3E3CB
:101DA000F0E08081482F50E08B81282F30E081E0E7
:101DB00090E002C0880F991F2A95E2F79A01282324
:101DC00039238B81882F90E0A90102C05595479552
:101DD0008A95E2F7CA01EC81FD81808321C0E0E3AE
:101DE000F0E08081482F50E08B81282F30E081E0A7
:101DF00090E002C0880F991F2A95E2F79A012823E4
:101E000039238B81882F90E0A90102C05595479511
:101E10008A95E2F7CA01EC81FD81808301C01982B5
:101E2000898127960FB6F894DEBF0FBECDBFCF9144
:101E3000DF910895DF93CF9300D000D00F92CDB7FC
:101E4000DEB78A836B8381E089838A81843008F0DE
:101E500073C08B81883008F06FC08A81282F30E0F2
:101E60003D832C838C819D818130910549F12C81AA
:101E70003D81223031052CF48C819D81009761F0E9
:101E80005CC02C813D812230310571F18C819D81B6
:101E900083309105E9F151C0ABE3B0E0EBE3F0E052
:101EA0008081482F8B81282F30E081E090E0022E46
:101EB00002C0880F991F0A94E2F784278C933DC0D3
:101EC000A8E3B0E0E8E3F0E08081482F8B81282F81
:101ED00030E081E090E0022E02C0880F991F0A9442
:101EE000E2F784278C9329C0A5E3B0E0E5E3F0E0B6
:101EF0008081482F8B81282F30E081E090E0022EF6
:101F000002C0880F991F0A94E2F784278C9315C0AA
:101F1000A2E3B0E0E2E3F0E08081482F8B81282F3C
:101F200030E081E090E0022E02C0880F991F0A94F1
:101F3000E2F784278C9301C0198289810F900F905A
:101F40000F900F900F90CF91DF910895DF93CF9373
:101F500000D000D000D0CDB7DEB78A836B834C832E
:101F600081E089838A81843008F03EC18B8188308A
:101F700008F03AC18A81282F30E03E832D838D817D
:101F80009E818130910509F45DC02D813E81223012
:101F900031052CF48D819E81009771F026C12D8131
:101FA0003E812230310509F493C08D819E818330BA
:101FB000910509F4D3C019C18C81813071F5A0E578
:101FC000B0E0E0E5F0E080818B7F8C93AAE3B0E0A5
:101FD000EAE3F0E08081482F8B81282F30E081E018
:101FE00090E002C0880F991F2A95E2F7809584231C
:101FF0008C93ABE3B0E0EBE3F0E08081482F8B8182
:10200000282F30E081E090E0022E02C0880F991F57
:102010000A94E2F7842B8C93E8C0ABE3B0E0EBE3E7
:10202000F0E08081482F8B81282F30E081E090E024
:10203000022E02C0880F991F0A94E2F7809584232C
:102040008C93D3C08C81813071F5A0E5B0E0E0E5E0
:10205000F0E080818B7F8C93A7E3B0E0E7E3F0E0D2
:102060008081482F8B81282F30E081E090E002C0F2
:10207000880F991F2A95E2F7809584238C93A8E313
:10208000B0E0E8E3F0E08081482F8B81282F30E03A
:1020900081E090E0022E02C0880F991F0A94E2F7B7
:1020A000842B8C93A2C0A8E3B0E0E8E3F0E0808149
:1020B000482F8B81282F30E081E090E0022E02C073
:1020C000880F991F0A94E2F7809584238C938DC022
:1020D0008C81813071F5A0E5B0E0E0E5F0E0808131
:1020E0008B7F8C93A4E3B0E0E4E3F0E08081482FA1
:1020F0008B81282F30E081E090E002C0880F991F8B
:102100002A95E2F7809584238C93A5E3B0E0E5E37C
:10211000F0E08081482F8B81282F30E081E090E033
:10212000022E02C0880F991F0A94E2F7842B8C9329
:102130005CC0A5E3B0E0E5E3F0E08081482F8B814F
:10214000282F30E081E090E0022E02C0880F991F16
:102150000A94E2F7809584238C9347C08C81813068
:1021600071F5A0E5B0E0E0E5F0E080818B7F8C9335
:10217000A1E3B0E0E1E3F0E08081482F8B81282FDC
:1021800030E081E090E002C0880F991F2A95E2F7C5
:10219000809584238C93A2E3B0E0E2E3F0E08081B9
:1021A000482F8B81282F30E081E090E0022E02C082
:1021B000880F991F0A94E2F7842B8C9316C0ABE327
:1021C000B0E0EBE3F0E08081482F8B81282F30E0F6
:1021D00081E090E0022E02C0880F991F0A94E2F776
:1021E000809584238C9301C01982898126960FB62D
:1021F000F894DEBF0FBECDBFCF91DF910895DF937E
:10220000CF93CDB7DEB7A0E5B0E0E0E5F0E08081A8
:1022100084608C93CF91DF910895DF93CF9300D0AA
:1022200000D00F92CDB7DEB78A836B8381E08983BC
:102230008A81843098F58A81282F30E03D832C8371
:102240008C819D8181309105D1F02C813D8122309E
:1022500031052CF48C819D81009761F020C02C8188
:102260003D812230310581F08C819D818330910543
:1022700081F015C0EAE3F0E08B81808310C0E7E3D2
:10228000F0E08B8180830BC0E4E3F0E08B818083FE
:1022900006C0E1E3F0E08B81808301C0198289816F
:1022A0000F900F900F900F900F90CF91DF910895A6
:1022B000DF93CF9300D000D00F92CDB7DEB78A83E3
:1022C0006B8381E089838A81843098F58A81282F05
:1022D00030E03D832C838C819D8181309105D1F04C
:1022E0002C813D81223031052CF48C819D81009719
:1022F00061F020C02C813D812230310581F08C813C
:102300009D818330910581F015C0EBE3F0E08B8176
:10231000808310C0E8E3F0E08B8180830BC0E5E3AD
:10232000F0E08B81808306C0E2E3F0E08B81808364
:1023300001C0198289810F900F900F900F900F901C
:10234000CF91DF910895DF93CF9300D000D000D0DC
:10235000CDB7DEB78A837C836B8381E089838A81F2
:102360008430D8F58A81282F30E03E832D838D81FB
:102370009E8181309105E1F02D813E812230310531
:102380002CF48D819E81009761F028C02D813E81C3
:1023900022303105A1F08D819E8183309105B1F00D
:1023A0001DC0E9E3F0E08081EB81FC81808316C0F1
:1023B000E6E3F0E08081EB81FC8180830FC0E3E302
:1023C000F0E08081EB81FC81808308C0E0E3F0E0F5
:1023D0008081EB81FC81808301C0198289812696EE
:1023E0000FB6F894DEBF0FBECDBFCF91DF91089539
:1023F000DF93CF9300D000D0CDB7DEB78A8381E0E2
:1024000089838A81843008F03FC08A81282F30E098
:102410003C832B838B819C8181309105E9F02B815A
:102420003C81223031052CF48B819C81009761F036
:102430002CC02B813C8122303105B1F08B819C81F5
:1024400083309105C9F021C0ABE3B0E0EBE3F0E0ED
:10245000808180958C9319C0A8E3B0E0EBE3F0E0B5
:10246000808180958C9311C0A5E3B0E0EBE3F0E0B0
:10247000808180958C9309C0A2E3B0E0EBE3F0E0AB
:10248000808180958C9301C0198289810F900F9073
:102490000F900F90CF91DF910895DF93CF9300D0ED
:1024A00000D0CDB7DEB769837A838B839C838A8122
:1024B0006FEF0E940D110F900F900F900F90CF9122
:1024C000DF910895DF93CF9300D000D0CDB7DEB772
:1024D00069837A838B839C838981882369F48B81C8
:1024E0009C81692F41E00E94370C8B819C81692F70
:1024F00040E00E94460D0FC08981813061F48B81DC
:102500009C81692F41E00E94370C8B819C81692F4F
:1025100041E00E94460D0F900F900F900F90CF91C9
:10252000DF910895DF93CF9300D000D0CDB7DEB711
:1025300069837A838B839C838981882369F48B8167
:102540009C81692F41E00E94370C8B819C81692F0F
:1025500041E00E94460D0FC08981813061F48B817A
:102560009C81692F41E00E94370C8B819C81692FEF
:1025700040E00E94460D0F900F900F900F90CF916A
:10258000DF910895DF93CF9300D000D00F92CDB7A5
:10259000DEB769837A838B839C834D83898188230B
:1025A00069F42A818D81882F90E0FC01E255FF4F6C
:1025B0009081822F692F0E94581111C0898181302A
:1025C00071F42A818D81882F90E0FC01E255FF4F44
:1025D0008081982F9095822F692F0E9458110F901B
:1025E0000F900F900F900F90CF91DF910895DF9390
:1025F000CF9300D00F92CDB7DEB769837A838B83F8
:1026000089819A81692F40E00E94370C8B81882351
:1026100031F489819A81692F41E00E94A60F0F90C1
:102620000F900F90CF91DF910895DF93CF9300D05B
:1026300000D00F92CDB7DEB76B837C838D83198278
:102640008D81813019F08D81882389F48B819C8163
:102650009E012E5F3F4F692FA9010E94550E8A816E
:10266000813011F4198216C081E0898313C08D81F5
:10267000823081F48B819C819E012E5F3F4F692FB8
:10268000A9010E94550E8A81813019F481E0898365
:1026900001C0198289810F900F900F900F900F90B9
:1026A000CF91DF910895DF93CF93CDB7DEB72E970B
:1026B0000FB6F894DEBF0FBECDBF0E94A3050E94E7
:1026C000E10A0E94930780E090E0A8ECB2E48B87D7
:1026D0009C87AD87BE876B857C858D859E8520E038
:1026E00030E04AEF54E40E941F02DC01CB018F83EB
:1026F0009887A987BA876F81788589859A8520E030
:1027000030E040E85FE30E94790388232CF481E005
:1027100090E09E838D833FC06F81788589859A85FF
:1027200020E03FEF4FE757E40E94190318164CF5DD
:102730006B857C858D859E8520E030E040E251E40C
:102740000E941F02DC01CB01BC01CD010E944900A7
:10275000DC01CB019E838D830FC088EC90E09C83CD
:102760008B838B819C810197F1F79C838B838D8177
:102770009E8101979E838D838D819E81009769F74D
:102780009ECF6F81788589859A850E944900DC01FA
:10279000CB019E838D838D819E819A8389838981DC
:1027A0009A810197F1F79A83898389CF2F923F927B
:1027B0004F925F926F927F928F929F92AF92BF9251
:1027C000CF92DF92EF92FF920F931F93CF93DF93FD
:1027D000CDB7DEB7CA1BDB0B0FB6F894DEBF0FBE5A
:1027E000CDBF09942A88398848885F846E847D84A7
:1027F0008C849B84AA84B984C884DF80EE80FD80A9
:102800000C811B81AA81B981CE0FD11D0FB6F8941E
:0E281000DEBF0FBECDBFED010895F894FFCFDF
:10281E0049646C65204D6F64650052696768742069
:10282E004C656420426C696E6B004C656674204C7E
:10283E00656420426C696E6B0048617A6172642037
:10284E004D6F6465000000000000000000000002F3
:10285E0006000102070200000201000202003F060C
:08286E005B4F666D7D077F6F73
:00000001FF
